{
  "contractName": "URA",
  "abi": [
    {
      "constant": true,
      "inputs": [],
      "name": "name",
      "outputs": [
        {
          "name": "",
          "type": "string"
        }
      ],
      "payable": false,
      "stateMutability": "view",
      "type": "function"
    },
    {
      "constant": true,
      "inputs": [],
      "name": "totalSupply",
      "outputs": [
        {
          "name": "",
          "type": "uint256"
        }
      ],
      "payable": false,
      "stateMutability": "view",
      "type": "function"
    },
    {
      "constant": true,
      "inputs": [],
      "name": "tokensOwner",
      "outputs": [
        {
          "name": "tokens",
          "type": "uint256"
        }
      ],
      "payable": false,
      "stateMutability": "view",
      "type": "function"
    },
    {
      "constant": false,
      "inputs": [],
      "name": "withdrawDividendes",
      "outputs": [
        {
          "name": "success",
          "type": "bool"
        }
      ],
      "payable": true,
      "stateMutability": "payable",
      "type": "function"
    },
    {
      "constant": true,
      "inputs": [],
      "name": "dividendsCosts",
      "outputs": [
        {
          "name": "",
          "type": "uint8"
        }
      ],
      "payable": false,
      "stateMutability": "view",
      "type": "function"
    },
    {
      "constant": true,
      "inputs": [],
      "name": "dividendes",
      "outputs": [
        {
          "name": "",
          "type": "uint256"
        }
      ],
      "payable": false,
      "stateMutability": "view",
      "type": "function"
    },
    {
      "constant": true,
      "inputs": [
        {
          "name": "_tokenOwner",
          "type": "address"
        }
      ],
      "name": "balanceOf",
      "outputs": [
        {
          "name": "balanceOwner",
          "type": "uint256"
        }
      ],
      "payable": false,
      "stateMutability": "view",
      "type": "function"
    },
    {
      "constant": true,
      "inputs": [],
      "name": "contracBalance",
      "outputs": [
        {
          "name": "contractBalance",
          "type": "uint256"
        }
      ],
      "payable": false,
      "stateMutability": "view",
      "type": "function"
    },
    {
      "constant": true,
      "inputs": [],
      "name": "symbol",
      "outputs": [
        {
          "name": "",
          "type": "string"
        }
      ],
      "payable": false,
      "stateMutability": "view",
      "type": "function"
    },
    {
      "constant": true,
      "inputs": [],
      "name": "forTransferCosts",
      "outputs": [
        {
          "name": "",
          "type": "uint8"
        }
      ],
      "payable": false,
      "stateMutability": "view",
      "type": "function"
    },
    {
      "constant": true,
      "inputs": [],
      "name": "forReferralCosts",
      "outputs": [
        {
          "name": "",
          "type": "uint8"
        }
      ],
      "payable": false,
      "stateMutability": "view",
      "type": "function"
    },
    {
      "constant": true,
      "inputs": [],
      "name": "forWithdrawCosts",
      "outputs": [
        {
          "name": "",
          "type": "uint8"
        }
      ],
      "payable": false,
      "stateMutability": "view",
      "type": "function"
    },
    {
      "constant": true,
      "inputs": [],
      "name": "advertisingCosts",
      "outputs": [
        {
          "name": "",
          "type": "uint8"
        }
      ],
      "payable": false,
      "stateMutability": "view",
      "type": "function"
    },
    {
      "constant": true,
      "inputs": [
        {
          "name": "_owner",
          "type": "address"
        }
      ],
      "name": "dividendesOf",
      "outputs": [
        {
          "name": "dividendesAmount",
          "type": "uint256"
        }
      ],
      "payable": false,
      "stateMutability": "view",
      "type": "function"
    },
    {
      "inputs": [],
      "payable": false,
      "stateMutability": "nonpayable",
      "type": "constructor"
    },
    {
      "payable": true,
      "stateMutability": "payable",
      "type": "fallback"
    },
    {
      "anonymous": false,
      "inputs": [
        {
          "indexed": true,
          "name": "customerAddress",
          "type": "address"
        },
        {
          "indexed": false,
          "name": "trxeumWithdrawn",
          "type": "uint256"
        }
      ],
      "name": "WithdrawTokens",
      "type": "event"
    },
    {
      "anonymous": false,
      "inputs": [
        {
          "indexed": false,
          "name": "trxAmount",
          "type": "uint256"
        }
      ],
      "name": "ReverseAccess",
      "type": "event"
    },
    {
      "anonymous": false,
      "inputs": [
        {
          "indexed": false,
          "name": "trxAmount",
          "type": "uint256"
        }
      ],
      "name": "ForReferral",
      "type": "event"
    },
    {
      "anonymous": false,
      "inputs": [
        {
          "indexed": true,
          "name": "customerAddress",
          "type": "address"
        },
        {
          "indexed": false,
          "name": "dividendesAmount",
          "type": "uint256"
        }
      ],
      "name": "SendOnDividend",
      "type": "event"
    },
    {
      "anonymous": false,
      "inputs": [
        {
          "indexed": true,
          "name": "customerAddress",
          "type": "address"
        },
        {
          "indexed": false,
          "name": "dividendesAmount",
          "type": "uint256"
        }
      ],
      "name": "WithdrawDividendes",
      "type": "event"
    },
    {
      "anonymous": false,
      "inputs": [
        {
          "indexed": true,
          "name": "from",
          "type": "address"
        },
        {
          "indexed": true,
          "name": "to",
          "type": "address"
        },
        {
          "indexed": false,
          "name": "tokens",
          "type": "uint256"
        }
      ],
      "name": "Transfer",
      "type": "event"
    },
    {
      "anonymous": false,
      "inputs": [
        {
          "indexed": true,
          "name": "from",
          "type": "address"
        },
        {
          "indexed": true,
          "name": "to",
          "type": "address"
        },
        {
          "indexed": false,
          "name": "trxAmount",
          "type": "uint256"
        }
      ],
      "name": "trxTransfer",
      "type": "event"
    },
    {
      "constant": false,
      "inputs": [
        {
          "name": "_referralAddress",
          "type": "address"
        }
      ],
      "name": "buy",
      "outputs": [],
      "payable": true,
      "stateMutability": "payable",
      "type": "function"
    },
    {
      "constant": true,
      "inputs": [],
      "name": "tokenPrice",
      "outputs": [
        {
          "name": "priceForToken",
          "type": "uint256"
        }
      ],
      "payable": false,
      "stateMutability": "view",
      "type": "function"
    },
    {
      "constant": false,
      "inputs": [
        {
          "name": "_valueTokens",
          "type": "uint256"
        }
      ],
      "name": "withdraw",
      "outputs": [
        {
          "name": "success",
          "type": "bool"
        }
      ],
      "payable": true,
      "stateMutability": "payable",
      "type": "function"
    },
    {
      "constant": false,
      "inputs": [],
      "name": "reinvest",
      "outputs": [
        {
          "name": "success",
          "type": "bool"
        }
      ],
      "payable": true,
      "stateMutability": "payable",
      "type": "function"
    },
    {
      "constant": false,
      "inputs": [
        {
          "name": "_to",
          "type": "address"
        },
        {
          "name": "_tokens",
          "type": "uint256"
        }
      ],
      "name": "transfer",
      "outputs": [
        {
          "name": "success",
          "type": "bool"
        }
      ],
      "payable": false,
      "stateMutability": "nonpayable",
      "type": "function"
    }
  ],
  "bytecode": "0x608060405234801561001057600080fd5b50d3801561001d57600080fd5b50d2801561002a57600080fd5b5033600460006101000a81548173ffffffffffffffffffffffffffffffffffffffff021916908373ffffffffffffffffffffffffffffffffffffffff1602179055506121498061007b6000396000f300608060405260043610610107576000357c0100000000000000000000000000000000000000000000000000000000900463ffffffff16806306fdde031461011357806318160ddd146101bd5780632e1a7d4d1461020257806334309e971461023a57806339e5e5d71461027f5780634083f9fa146102a15780634b47feb1146102ec57806370a08231146103315780637a766896146103a25780637ff9b596146103e757806395d89b411461042c5780639d5b4180146104d65780639e0b83d214610521578063a9059cbb1461056c578063d2af0866146105eb578063e424ae3714610636578063e9f6d57a14610681578063f088d547146106f2578063fdb5a03e14610728575b610111600061074a565b005b34801561011f57600080fd5b50d3801561012c57600080fd5b50d2801561013957600080fd5b50610142610d0f565b6040518080602001828103825283818151815260200191508051906020019080838360005b83811015610182578082015181840152602081019050610167565b50505050905090810190601f1680156101af5780820380516001836020036101000a031916815260200191505b509250505060405180910390f35b3480156101c957600080fd5b50d380156101d657600080fd5b50d280156101e357600080fd5b506101ec610d48565b6040518082815260200191505060405180910390f35b61022060048036038101908080359060200190929190505050610d4e565b604051808215151515815260200191505060405180910390f35b34801561024657600080fd5b50d3801561025357600080fd5b50d2801561026057600080fd5b506102696111b4565b6040518082815260200191505060405180910390f35b6102876111fb565b604051808215151515815260200191505060405180910390f35b3480156102ad57600080fd5b50d380156102ba57600080fd5b50d280156102c757600080fd5b506102d06114e0565b604051808260ff1660ff16815260200191505060405180910390f35b3480156102f857600080fd5b50d3801561030557600080fd5b50d2801561031257600080fd5b5061031b6114e5565b6040518082815260200191505060405180910390f35b34801561033d57600080fd5b50d3801561034a57600080fd5b50d2801561035757600080fd5b5061038c600480360381019080803573ffffffffffffffffffffffffffffffffffffffff1690602001909291905050506114eb565b6040518082815260200191505060405180910390f35b3480156103ae57600080fd5b50d380156103bb57600080fd5b50d280156103c857600080fd5b506103d1611534565b6040518082815260200191505060405180910390f35b3480156103f357600080fd5b50d3801561040057600080fd5b50d2801561040d57600080fd5b50610416611553565b6040518082815260200191505060405180910390f35b34801561043857600080fd5b50d3801561044557600080fd5b50d2801561045257600080fd5b5061045b6115d2565b6040518080602001828103825283818151815260200191508051906020019080838360005b8381101561049b578082015181840152602081019050610480565b50505050905090810190601f1680156104c85780820380516001836020036101000a031916815260200191505b509250505060405180910390f35b3480156104e257600080fd5b50d380156104ef57600080fd5b50d280156104fc57600080fd5b5061050561160b565b604051808260ff1660ff16815260200191505060405180910390f35b34801561052d57600080fd5b50d3801561053a57600080fd5b50d2801561054757600080fd5b50610550611610565b604051808260ff1660ff16815260200191505060405180910390f35b34801561057857600080fd5b50d3801561058557600080fd5b50d2801561059257600080fd5b506105d1600480360381019080803573ffffffffffffffffffffffffffffffffffffffff16906020019092919080359060200190929190505050611615565b604051808215151515815260200191505060405180910390f35b3480156105f757600080fd5b50d3801561060457600080fd5b50d2801561061157600080fd5b5061061a6119f3565b604051808260ff1660ff16815260200191505060405180910390f35b34801561064257600080fd5b50d3801561064f57600080fd5b50d2801561065c57600080fd5b506106656119f8565b604051808260ff1660ff16815260200191505060405180910390f35b34801561068d57600080fd5b50d3801561069a57600080fd5b50d280156106a757600080fd5b506106dc600480360381019080803573ffffffffffffffffffffffffffffffffffffffff1690602001909291905050506119fd565b6040518082815260200191505060405180910390f35b610726600480360381019080803573ffffffffffffffffffffffffffffffffffffffff16906020019092919050505061074a565b005b610730611a1c565b604051808215151515815260200191505060405180910390f35b6000806000806000806000806000349850610763611553565b955061076e336119fd565b945061079a606461078c600560ff168c611cc990919063ffffffff16565b611d0790919063ffffffff16565b93506107a789600a611d31565b9250600073ffffffffffffffffffffffffffffffffffffffff168a73ffffffffffffffffffffffffffffffffffffffff161415156108215761080960646107fb600260ff168c611cc990919063ffffffff16565b611d0790919063ffffffff16565b975061081e8885611d6490919063ffffffff16565b93505b6108588861084a8661083c878e611d6490919063ffffffff16565b611d6490919063ffffffff16565b611d6490919063ffffffff16565b98508589101515156108d2576040517f08c379a000000000000000000000000000000000000000000000000000000000815260040180806020018281038252601f8152602001807f74686520616d6f756e74206f6620747278206973206e6f7420656e6f7567680081525060200191505060405180910390fd5b6108dc8987611d85565b91509150600460009054906101000a900473ffffffffffffffffffffffffffffffffffffffff1673ffffffffffffffffffffffffffffffffffffffff166108fc859081150290604051600060405180830381858888f19350505050158015610948573d6000803e3d6000fd5b5061095c8188611ebb90919063ffffffff16565b965060008711156109e6573373ffffffffffffffffffffffffffffffffffffffff166108fc889081150290604051600060405180830381858888f193505050501580156109ad573d6000803e3d6000fd5b507ff932f54b7bd45aee7b274aaa8e08bd704e360a797d9f4ec7f782119c67669e60876040518082815260200191505060405180910390a15b600088118015610a235750600073ffffffffffffffffffffffffffffffffffffffff168a73ffffffffffffffffffffffffffffffffffffffff1614155b15610aa7578973ffffffffffffffffffffffffffffffffffffffff166108fc899081150290604051600060405180830381858888f19350505050158015610a6e573d6000803e3d6000fd5b507f201c70cca240974b9815c8b67a9c18165cbc2a19e163178238509f4d557c3ce6886040518082815260200191505060405180910390a15b85851115610ab957610ab7611a1c565b505b43600360003373ffffffffffffffffffffffffffffffffffffffff1673ffffffffffffffffffffffffffffffffffffffff16815260200190815260200160002081905550610b4f82600160003373ffffffffffffffffffffffffffffffffffffffff1673ffffffffffffffffffffffffffffffffffffffff16815260200190815260200160002054611ebb90919063ffffffff16565b600160003373ffffffffffffffffffffffffffffffffffffffff1673ffffffffffffffffffffffffffffffffffffffff16815260200190815260200160002081905550610ba782600054611ebb90919063ffffffff16565b600081905550610bc283600254611ebb90919063ffffffff16565b600281905550600460009054906101000a900473ffffffffffffffffffffffffffffffffffffffff1673ffffffffffffffffffffffffffffffffffffffff163373ffffffffffffffffffffffffffffffffffffffff167fb94d2a5791db05dbf04bbba2a5537aabba0b92d3a6a2d677b0569ba703716798866040518082815260200191505060405180910390a33373ffffffffffffffffffffffffffffffffffffffff16600073ffffffffffffffffffffffffffffffffffffffff167fddf252ad1be2c89b69c2b068fc378daa952ba7f163c4a11628f55a4df523b3ef846040518082815260200191505060405180910390a33373ffffffffffffffffffffffffffffffffffffffff167f20b430d7cf15437bd4e9703d16ad29546b6c808f764b32b769ab426e2709f1a2846040518082815260200191505060405180910390a250505050505050505050565b6040805190810160405280601181526020017f54726f6e206d61726b657420746f6b656e00000000000000000000000000000081525081565b60005481565b6000806000806000806000610d62336114eb565b9550600088111515610ddc576040517f08c379a00000000000000000000000000000000000000000000000000000000081526004018080602001828103825260138152602001807f63616e6e6f74207061737320302076616c75650000000000000000000000000081525060200191505060405180910390fd5b878610151515610e54576040517f08c379a000000000000000000000000000000000000000000000000000000000815260040180806020018281038252601e8152602001807f796f7520646f206e6f74206861766520736f206d616e7920746f6b656e73000081525060200191505060405180910390fd5b610e5c611553565b9450610e688886611edc565b9350610e72611534565b9250610e7f846003611d31565b9150610e8a86611f70565b9050610e9f8285611d6490919063ffffffff16565b9350610eb688600054611d6490919063ffffffff16565b6000819055506000811115610f4457610eda81600254611d6490919063ffffffff16565b600281905550610ef38185611ebb90919063ffffffff16565b93503373ffffffffffffffffffffffffffffffffffffffff167fe050866b61c583e33cd2fd2d33c3c3e9bcca3380b086dbfb99ef37792f3e5eac826040518082815260200191505060405180910390a25b87861415610fdb576000600360003373ffffffffffffffffffffffffffffffffffffffff1673ffffffffffffffffffffffffffffffffffffffff168152602001908152602001600020819055506000600160003373ffffffffffffffffffffffffffffffffffffffff1673ffffffffffffffffffffffffffffffffffffffff168152602001908152602001600020819055506110b5565b43600360003373ffffffffffffffffffffffffffffffffffffffff1673ffffffffffffffffffffffffffffffffffffffff1681526020019081526020016000208190555061107188600160003373ffffffffffffffffffffffffffffffffffffffff1673ffffffffffffffffffffffffffffffffffffffff16815260200190815260200160002054611d6490919063ffffffff16565b600160003373ffffffffffffffffffffffffffffffffffffffff1673ffffffffffffffffffffffffffffffffffffffff168152602001908152602001600020819055505b828411156110c1578293505b3373ffffffffffffffffffffffffffffffffffffffff166108fc859081150290604051600060405180830381858888f19350505050158015611107573d6000803e3d6000fd5b503373ffffffffffffffffffffffffffffffffffffffff167f680f2e4f4032ebf1774e8cdbaddcb1b617a5a606411c8ca96257ada338d3833c856040518082815260200191505060405180910390a2600073ffffffffffffffffffffffffffffffffffffffff167f20b430d7cf15437bd4e9703d16ad29546b6c808f764b32b769ab426e2709f1a2836040518082815260200191505060405180910390a260019650505050505050919050565b6000600160003373ffffffffffffffffffffffffffffffffffffffff1673ffffffffffffffffffffffffffffffffffffffff16815260200190815260200160002054905090565b6000806000611209336114eb565b9150600082111515611283576040517f08c379a00000000000000000000000000000000000000000000000000000000081526004018080602001828103825260138152602001807f63616e6e6f74207061737320302076616c75650000000000000000000000000081525060200191505060405180910390fd5b6000600360003373ffffffffffffffffffffffffffffffffffffffff1673ffffffffffffffffffffffffffffffffffffffff16815260200190815260200160002054111515611360576040517f08c379a00000000000000000000000000000000000000000000000000000000081526004018080602001828103825260228152602001807f746f207769746864726177206469766964656e64732c20706c6561736520776181526020017f697400000000000000000000000000000000000000000000000000000000000081525060400191505060405180910390fd5b61136982611f70565b90506000811115156113e3576040517f08c379a00000000000000000000000000000000000000000000000000000000081526004018080602001828103825260158152602001807f6469766964656e64657320616d6f756e74203e2030000000000000000000000081525060200191505060405180910390fd5b43600360003373ffffffffffffffffffffffffffffffffffffffff1673ffffffffffffffffffffffffffffffffffffffff1681526020019081526020016000208190555061143c81600254611d6490919063ffffffff16565b6002819055503373ffffffffffffffffffffffffffffffffffffffff166108fc829081150290604051600060405180830381858888f19350505050158015611488573d6000803e3d6000fd5b503373ffffffffffffffffffffffffffffffffffffffff167fe050866b61c583e33cd2fd2d33c3c3e9bcca3380b086dbfb99ef37792f3e5eac826040518082815260200191505060405180910390a260019250505090565b600a81565b60025481565b6000600160008373ffffffffffffffffffffffffffffffffffffffff1673ffffffffffffffffffffffffffffffffffffffff168152602001908152602001600020549050919050565b60003073ffffffffffffffffffffffffffffffffffffffff1631905090565b60008061155e611534565b90506000805414806115705750600081145b156115905760036fffffffffffffffffffffffffffffffff1691506115ce565b6115cb60036115bd60046115af60005486611d0790919063ffffffff16565b611cc990919063ffffffff16565b611d0790919063ffffffff16565b91505b5090565b6040805190810160405280600381526020017f544d54000000000000000000000000000000000000000000000000000000000081525081565b600a81565b600281565b600080600080600080611627886114eb565b9450611632336114eb565b935061163c611553565b925060008711801561164e5750838711155b15156116c2576040517f08c379a00000000000000000000000000000000000000000000000000000000081526004018080602001828103825260168152602001807f77726f6e67206e756d626572206f6620746f6b656e730000000000000000000081525060200191505060405180910390fd5b6116cd87600a611d31565b91506116d98284611edc565b905060008514156117295743600360008a73ffffffffffffffffffffffffffffffffffffffff1673ffffffffffffffffffffffffffffffffffffffff168152602001908152602001600020819055505b61177b87600160003373ffffffffffffffffffffffffffffffffffffffff1673ffffffffffffffffffffffffffffffffffffffff16815260200190815260200160002054611d6490919063ffffffff16565b600160003373ffffffffffffffffffffffffffffffffffffffff1673ffffffffffffffffffffffffffffffffffffffff168152602001908152602001600020819055506117d382600054611d6490919063ffffffff16565b6000819055508684141561186c576000600360003373ffffffffffffffffffffffffffffffffffffffff1673ffffffffffffffffffffffffffffffffffffffff168152602001908152602001600020819055506000600160003373ffffffffffffffffffffffffffffffffffffffff1673ffffffffffffffffffffffffffffffffffffffff168152602001908152602001600020819055505b61187f8288611d6490919063ffffffff16565b96506118d387600160008b73ffffffffffffffffffffffffffffffffffffffff1673ffffffffffffffffffffffffffffffffffffffff16815260200190815260200160002054611ebb90919063ffffffff16565b600160008a73ffffffffffffffffffffffffffffffffffffffff1673ffffffffffffffffffffffffffffffffffffffff1681526020019081526020016000208190555061192b81600254611ebb90919063ffffffff16565b6002819055508773ffffffffffffffffffffffffffffffffffffffff163373ffffffffffffffffffffffffffffffffffffffff167fddf252ad1be2c89b69c2b068fc378daa952ba7f163c4a11628f55a4df523b3ef896040518082815260200191505060405180910390a33373ffffffffffffffffffffffffffffffffffffffff167f20b430d7cf15437bd4e9703d16ad29546b6c808f764b32b769ab426e2709f1a2826040518082815260200191505060405180910390a260019550505050505092915050565b600381565b600581565b600080611a09836114eb565b9050611a1481611f70565b915050919050565b6000806000806000611a2d336119fd565b9350611a37611553565b9250828410151515611ab1576040517f08c379a00000000000000000000000000000000000000000000000000000000081526004018080602001828103825260148152602001807f6e6f7420656e6f756768206469766964656e647300000000000000000000000081525060200191505060405180910390fd5b611abb8484611d85565b91509150600082111515611b37576040517f08c379a00000000000000000000000000000000000000000000000000000000081526004018080602001828103825260168152602001807f746f6b656e7320616d6f756e74206e6f74207a65726f0000000000000000000081525060200191505060405180910390fd5b611b5e611b4d8286611d6490919063ffffffff16565b600254611d6490919063ffffffff16565b600281905550611bb682600160003373ffffffffffffffffffffffffffffffffffffffff1673ffffffffffffffffffffffffffffffffffffffff16815260200190815260200160002054611ebb90919063ffffffff16565b600160003373ffffffffffffffffffffffffffffffffffffffff1673ffffffffffffffffffffffffffffffffffffffff16815260200190815260200160002081905550611c0e82600054611ebb90919063ffffffff16565b60008190555043600360003373ffffffffffffffffffffffffffffffffffffffff1673ffffffffffffffffffffffffffffffffffffffff168152602001908152602001600020819055503373ffffffffffffffffffffffffffffffffffffffff16600073ffffffffffffffffffffffffffffffffffffffff167fddf252ad1be2c89b69c2b068fc378daa952ba7f163c4a11628f55a4df523b3ef846040518082815260200191505060405180910390a3600194505050505090565b6000806000841415611cde5760009150611d00565b8284029050828482811515611cef57fe5b04141515611cfc57600080fd5b8091505b5092915050565b600080600083111515611d1957600080fd5b8284811515611d2457fe5b0490508091505092915050565b6000611d5c6064611d4e8460ff1686611cc990919063ffffffff16565b611d0790919063ffffffff16565b905092915050565b600080838311151515611d7657600080fd5b82840390508091505092915050565b600080828410151515611e00576040517f08c379a00000000000000000000000000000000000000000000000000000000081526004018080602001828103825260198152602001807f696e70757420747278203e206120746f6b656e2070726963650000000000000081525060200191505060405180910390fd5b611e138385611d0790919063ffffffff16565b9150600082111515611e8d576040517f08c379a00000000000000000000000000000000000000000000000000000000081526004018080602001828103825260188152602001807f796f752063616e206e6f7420627579203020746f6b656e73000000000000000081525060200191505060405180910390fd5b611eb2611ea38484611cc990919063ffffffff16565b85611d6490919063ffffffff16565b90509250929050565b6000808284019050838110151515611ed257600080fd5b8091505092915050565b60008083111515611f55576040517f08c379a000000000000000000000000000000000000000000000000000000000815260040180806020018281038252601a8152602001807f3020746f6b656e732063616e6e6f7420626520636f756e74656400000000000081525060200191505060405180910390fd5b611f688383611cc990919063ffffffff16565b905092915050565b600080600080841415611f865760009250611ff6565b611fa1678ac7230489e8000085611cc990919063ffffffff16565b9150611fac82611ffd565b9050611fd66064611fc883600254611cc990919063ffffffff16565b611d0790919063ffffffff16565b9250611ff3678ac7230489e8000084611d0790919063ffffffff16565b92505b5050919050565b60008060008314156120125760009150612054565b61201a61205a565b9050602881111561202a57602890505b6120516000546120438386611cc990919063ffffffff16565b611d0790919063ffffffff16565b91505b50919050565b600080600360003373ffffffffffffffffffffffffffffffffffffffff1673ffffffffffffffffffffffffffffffffffffffff1681526020019081526020016000205414156120ac576000905061211a565b6120fe600360003373ffffffffffffffffffffffffffffffffffffffff1673ffffffffffffffffffffffffffffffffffffffff1681526020019081526020016000205443611d6490919063ffffffff16565b9050612117600260ff1682611d0790919063ffffffff16565b90505b905600a165627a7a72305820bf993bdc1921848d54a104df7d7020c19ee9ee3b3b83f74c2d77d1fc2d1c00cd0029",
  "source": "pragma solidity ^0.4.25;\n\n\n/**\n * @title SafeMath\n * @dev Math operations with safety checks that revert on error\n */\nlibrary SafeMath {\n\n    /**\n    * @dev Multiplies two numbers, reverts on overflow.\n    */\n    function mul(uint256 a, uint256 b) internal pure returns (uint256) {\n        // Gas optimization: this is cheaper than requiring 'a' not being zero, but the\n        // benefit is lost if 'b' is also tested.\n        // See: https://github.com/OpenZeppelin/openzeppelin-solidity/pull/522\n        if (a == 0) {\n            return 0;\n        }\n\n        uint256 c = a * b;\n        require(c / a == b);\n\n        return c;\n    }\n\n    /**\n    * @dev Integer division of two numbers truncating the quotient, reverts on division by zero.\n    */\n    function div(uint256 a, uint256 b) internal pure returns (uint256) {\n        require(b > 0); // Solidity only automatically asserts when dividing by 0\n        uint256 c = a / b;\n        // assert(a == b * c + a % b); // There is no case in which this doesn't hold\n\n        return c;\n    }\n\n    /**\n    * @dev Subtracts two numbers, reverts on overflow (i.e. if subtrahend is greater than minuend).\n    */\n    function sub(uint256 a, uint256 b) internal pure returns (uint256) {\n        require(b <= a);\n        uint256 c = a - b;\n\n        return c;\n    }\n\n    /**\n    * @dev Adds two numbers, reverts on overflow.\n    */\n    function add(uint256 a, uint256 b) internal pure returns (uint256) {\n        uint256 c = a + b;\n        require(c >= a);\n\n        return c;\n    }\n\n    /**\n    * @dev Divides two numbers and returns the remainder (unsigned integer modulo),\n    * reverts when dividing by zero.\n    */\n    function mod(uint256 a, uint256 b) internal pure returns (uint256) {\n        require(b != 0);\n        return a % b;\n    }\n}\n\n\ncontract TRC20Interface {\n    function tokensOwner() public view returns (uint256);\n    function contracBalance() public view returns (uint256);\n    function balanceOf(address _tokenOwner) public view returns (uint256 balanceOwner);\n\n    event Transfer(address indexed from, address indexed to, uint256 tokens);\n    event trxTransfer(address indexed from, address indexed to, uint256 trxAmount);\n}\n\n\n// ----------------------------------------------------------------------------\n// TRC20 Token, with the addition of symbol.\n// ----------------------------------------------------------------------------\ncontract TRC20 is TRC20Interface {\n    using SafeMath for uint;\n\n    string constant public symbol = \"TMT\";\n    string constant public  name = \"Tron market token\";\n    uint8 constant internal decimals = 18;\n    uint256 public totalSupply;\n\n    mapping(address => uint256) balances;\n\n\n    // ------------------------------------------------------------------------\n    // Get balance on contract\n    // ------------------------------------------------------------------------\n    function contracBalance() public view returns (uint256 contractBalance) {\n        contractBalance = address(this).balance;\n    }\n\n\n    // ------------------------------------------------------------------------\n    // Get the token balance for account `tokenOwner`\n    // ------------------------------------------------------------------------\n    function balanceOf(address _tokenOwner) public view returns (uint256 balanceOwner) {\n        return balances[_tokenOwner];\n    }\n\n\n    // ------------------------------------------------------------------------\n    // Addon shows caller tokens.\n    // ------------------------------------------------------------------------\n    function tokensOwner() public view returns (uint256 tokens) {\n        tokens = balances[msg.sender];\n    }\n\n}\n\n\ncontract Dividend is TRC20 {\n\n    uint8 public constant dividendsCosts = 10; // Dividends 10%.\n    uint8 private constant rateFactor = 2; // Slowdown in dividend growth.\n    uint256 public dividendes; // storage for Dividends.\n\n    mapping(address => uint256) bookKeeper;\n\n\n    event SendOnDividend(address indexed customerAddress, uint256 dividendesAmount);\n    event WithdrawDividendes(address indexed customerAddress, uint256 dividendesAmount);\n\n    constructor() public {}\n\n\n    // ------------------------------------------------------------------------\n    // Withdraw dividendes.\n    // ------------------------------------------------------------------------\n    function withdrawDividendes() external payable returns(bool success) {\n        uint256 _tokensOwner = balanceOf(msg.sender);\n\n        require(_tokensOwner > 0, \"cannot pass 0 value\");\n        require(bookKeeper[msg.sender] > 0, \"to withdraw dividends, please wait\");\n\n        uint256 _dividendesAmount = dividendesCalc(_tokensOwner);\n\n        require(_dividendesAmount > 0, \"dividendes amount > 0\");\n\n        bookKeeper[msg.sender] = block.number;\n        dividendes = dividendes.sub(_dividendesAmount);\n\n        msg.sender.transfer(_dividendesAmount);\n\n        emit WithdrawDividendes(msg.sender, _dividendesAmount);\n\n        return true;\n    }\n\n\n    // ------------------------------------------------------------------------\n    // Get value of dividendes.\n    // ------------------------------------------------------------------------\n    function dividendesOf(address _owner)\n        public\n        view\n        returns(uint256 dividendesAmount) {\n        uint256 _tokens = balanceOf(_owner);\n\n        dividendesAmount = dividendesCalc(_tokens);\n    }\n\n\n    // ------------------------------------------------------------------------\n    // Count percent of dividendes from trx.\n    // ------------------------------------------------------------------------\n    function onDividendes(uint256 _value, uint8 _dividendsCosts)\n        internal\n        pure\n        returns(uint256 forDividendes) {\n        return _value.mul(_dividendsCosts).div(100);\n    }\n\n\n    // ------------------------------------------------------------------------\n    // Get number of dividendes in trx\n    // * @param _tokens: Amount customer tokens.\n    // * @param _dividendesPercent: Customer tokens percent in 10e18.\n    // *\n    // * @retunrs dividendesReceived: amount of dividendes in trx.\n    // ------------------------------------------------------------------------\n    function dividendesCalc(uint256 _tokensAmount)\n        internal\n        view\n        returns(uint256 dividendesReceived) {\n        if (_tokensAmount == 0) {\n            return 0;\n        }\n\n        uint256 _tokens = _tokensAmount.mul(10e18);\n        uint256 _dividendesPercent = dividendesPercent(_tokens); // Get % from tokensOwner.\n\n        dividendesReceived = dividendes.mul(_dividendesPercent).div(100);\n        dividendesReceived = dividendesReceived.div(10e18);\n    }\n\n\n    // ------------------------------------------------------------------------\n    // Get number of dividendes in percent\n    // * @param _tokens: Amount of (tokens * 10e18).\n    // * returns: tokens % in 10e18.\n    // ------------------------------------------------------------------------\n    function dividendesPercent(uint256 _tokens)\n        internal\n        view\n        returns(uint256 percent) {\n        if (_tokens == 0) {\n            return 0;\n        }\n\n        uint256 _interest = accumulatedInterest();\n\n        if (_interest > 40) {\n            _interest = 40;\n        }\n\n        percent = _tokens.mul(_interest).div(totalSupply);\n    }\n\n\n    // ------------------------------------------------------------------------\n    // Block value when buying.\n    // ------------------------------------------------------------------------\n    function accumulatedInterest() private view returns(uint256 interest) {\n        if (bookKeeper[msg.sender] == 0) {\n            interest = 0;\n        } else {\n            interest = block.number.sub(bookKeeper[msg.sender]);\n            interest = interest.div(rateFactor);\n        }\n    }\n\n}\n\n\ncontract URA is TRC20, Dividend {\n\n    // The initial cost of the token, it can not be less. //\n    uint128 constant tokenPriceInit = 3;\n\n    uint8 public constant advertisingCosts = 5; // 5% for transfer advertising.\n    uint8 public constant forReferralCosts = 2; // 2% for transfer to referral.\n    uint8 public constant forTransferCosts = 10; // 10% for the transfer of tokens.\n    uint8 public constant forWithdrawCosts = 3; // 3% for the withdraw of tokens.\n    address private advertising;\n\n    event WithdrawTokens(address indexed customerAddress, uint256 trxeumWithdrawn);\n    event ReverseAccess(uint256 trxAmount);\n    event ForReferral(uint256 trxAmount);\n\n\n    // ------------------------------------------------------------------------\n    // Constructor\n    // ------------------------------------------------------------------------\n    constructor() public {\n        advertising = msg.sender; // Init for advertising.\n    }\n\n\n    function () external payable {\n        buy(address(0));\n    }\n\n\n    // ------------------------------------------------------------------------\n    // Purchase\n    // * @param _reverseAccessOfLimiter: Excess value.\n    // * @param _aTokenPrice: Price For one token.\n    // * @param _forAdvertising: Advertising victim.\n    // * @param _forDividendes: Dividend sacrifice.\n    // * @param _amountOfTokens: trx to tokens amount.\n    // * @param _reverseAccess: Change remainder in trx.\n    // ------------------------------------------------------------------------\n    function buy(address _referralAddress) public payable {\n        uint256 _incomingtrxeum = msg.value;\n\n        uint256 _forReferral;\n        uint256 _reverseAccessOfLimiter;\n\n        uint256 _aTokenPrice = tokenPrice();\n        uint256 _dividendesOwner = dividendesOf(msg.sender);\n        uint256 _forAdvertising = _incomingtrxeum.mul(advertisingCosts).div(100);\n        uint256 _forDividendes = onDividendes(_incomingtrxeum, dividendsCosts);\n\n        if (_referralAddress != address(0)) {\n            _forReferral = _incomingtrxeum.mul(forReferralCosts).div(100);\n            _forAdvertising = _forAdvertising.sub(_forReferral);\n        }\n\n        _incomingtrxeum = _incomingtrxeum.sub(\n            _forDividendes\n        ).sub(\n            _forAdvertising\n        ).sub(\n            _forReferral\n        );\n\n        require(_incomingtrxeum >= _aTokenPrice, \"the amount of trx is not enough\");\n\n        (uint256 _amountOfTokens, uint256 _reverseAccess) = trxeumToTokens(_incomingtrxeum, _aTokenPrice);\n\n        advertising.transfer(_forAdvertising);\n\n        _reverseAccessOfLimiter = _reverseAccessOfLimiter.add(_reverseAccess);\n\n        if (_reverseAccessOfLimiter > 0) {\n            // If there are leftovers, then return to customer. //\n            msg.sender.transfer(_reverseAccessOfLimiter);\n            emit ReverseAccess(_reverseAccessOfLimiter);\n        }\n        if (_forReferral > 0 && _referralAddress != address(0)) {\n            _referralAddress.transfer(_forReferral);\n            emit ForReferral(_forReferral);\n        }\n        if (_dividendesOwner > _aTokenPrice) {\n            reinvest();\n        }\n\n        bookKeeper[msg.sender] = block.number;\n        balances[msg.sender] = balances[msg.sender].add(_amountOfTokens);\n        totalSupply = totalSupply.add(_amountOfTokens);\n        dividendes = dividendes.add(_forDividendes);\n\n        emit trxTransfer(msg.sender, advertising, _forAdvertising);\n        emit Transfer(address(0), msg.sender, _amountOfTokens);\n        emit SendOnDividend(msg.sender, _forDividendes);\n    }\n\n\n    // ------------------------------------------------------------------------\n    // Increment for token cost\n    // - Dynamic property that is responsible for\n    // - the rise and fall of the price of the token.\n    // ------------------------------------------------------------------------\n    function tokenPrice() public view returns(uint256 priceForToken) {\n        uint256 _contracBalance = contracBalance();\n\n        if (totalSupply == 0 || _contracBalance == 0) {\n            return tokenPriceInit;\n        }\n\n        return _contracBalance.div(totalSupply).mul(4).div(3);\n    }\n\n\n    // ------------------------------------------------------------------------\n    // Burning tokens function\n    // * @param _valueTokens: Amount tokens for burning.\n    // * @param _aTokenPrice: One token price.\n    // * @param _trxForTokens: Calculate the trx for burning tokens.\n    // * @param _forDividendes: Calculate the are common Dividendes.\n    // * @param _contracBalance: Get contract balance.\n    // * @param _dividendesAmount: Get the percentage of dividends burned tokens.\n    // ------------------------------------------------------------------------\n    function withdraw(uint256 _valueTokens) public payable returns(bool success) {\n        uint256 _tokensOwner = balanceOf(msg.sender);\n\n        require(_valueTokens > 0, \"cannot pass 0 value\");\n        require(_tokensOwner >= _valueTokens, \"you do not have so many tokens\");\n\n        uint256 _aTokenPrice = tokenPrice();\n        uint256 _trxForTokens = tokensTotrxeum(_valueTokens, _aTokenPrice);\n        uint256 _contracBalance = contracBalance();\n        uint256 _forDividendes = onDividendes(_trxForTokens, forWithdrawCosts);\n        uint256 _dividendesAmount = dividendesCalc(_tokensOwner);\n\n        _trxForTokens = _trxForTokens.sub(_forDividendes);\n        totalSupply = totalSupply.sub(_valueTokens);\n\n        if (_dividendesAmount > 0) {\n            dividendes = dividendes.sub(_dividendesAmount);\n            _trxForTokens = _trxForTokens.add(_dividendesAmount);\n            emit WithdrawDividendes(msg.sender, _dividendesAmount);\n        }\n        if (_tokensOwner == _valueTokens) {\n            // if the owner out of system //\n            bookKeeper[msg.sender] = 0;\n            balances[msg.sender] = 0;\n        } else {\n           bookKeeper[msg.sender] = block.number;\n           balances[msg.sender] = balances[msg.sender].sub(_valueTokens);\n        }\n        if (_trxForTokens > _contracBalance) {\n            _trxForTokens = _contracBalance;\n        }\n\n        msg.sender.transfer(_trxForTokens);\n\n        emit WithdrawTokens(msg.sender, _trxForTokens);\n        emit SendOnDividend(address(0), _forDividendes);\n\n        return true;\n    }\n\n\n    // ------------------------------------------------------------------------\n    // Reinvest dividends into tokens\n    // ------------------------------------------------------------------------\n    function reinvest() public payable returns(bool success) {\n        uint256 _dividendes = dividendesOf(msg.sender);\n        uint256 _aTokenPrice = tokenPrice();\n\n        require(_dividendes >= _aTokenPrice, \"not enough dividends\");\n\n        (uint256 _amountOfTokens, uint256 _reverseAccess) = trxeumToTokens(_dividendes, _aTokenPrice);\n\n        require(_amountOfTokens > 0, \"tokens amount not zero\");\n\n        dividendes = dividendes.sub(_dividendes.sub(_reverseAccess));\n        balances[msg.sender] = balances[msg.sender].add(_amountOfTokens);\n        totalSupply = totalSupply.add(_amountOfTokens);\n        bookKeeper[msg.sender] = block.number;\n\n        emit Transfer(address(0), msg.sender, _amountOfTokens);\n\n        return true;\n    }\n\n\n\n    // ------------------------------------------------------------------------\n    // Transfer the balance from token owner's account to `to` account\n    // - Owner's account must have sufficient balance to transfer\n    // - 0 value transfers are allowed\n    // ------------------------------------------------------------------------\n    function transfer(address _to, uint256 _tokens) public returns(bool success) {\n        uint256 _tokensRecipient = balanceOf(_to);\n        uint256 _tokensOwner = balanceOf(msg.sender);\n        uint256 _aTokenPrice = tokenPrice();\n\n        require(_tokens > 0 && _tokens <= _tokensOwner, \"wrong number of tokens\");\n\n        uint256 _forDividendes = onDividendes(_tokens, forTransferCosts);\n        uint256 _trxByTokens = tokensTotrxeum(_forDividendes, _aTokenPrice);\n\n        if (_tokensRecipient == 0) {\n            bookKeeper[_to] = block.number;\n        }\n\n        balances[msg.sender] = balances[msg.sender].sub(_tokens);\n        totalSupply = totalSupply.sub(_forDividendes);\n\n        if (_tokensOwner == _tokens) {\n            // if the owner out of system //\n            bookKeeper[msg.sender] = 0;\n            balances[msg.sender] = 0;\n        }\n\n        _tokens = _tokens.sub(_forDividendes);\n        balances[_to] = balances[_to].add(_tokens);\n        dividendes = dividendes.add(_trxByTokens);\n\n        emit Transfer(msg.sender, _to, _tokens);\n        emit SendOnDividend(msg.sender, _trxByTokens);\n\n        return true;\n    }\n\n\n\n    // ------------------------------------------------------------------------\n    // trx conversion to token\n    // ------------------------------------------------------------------------\n    function trxeumToTokens(uint256 _incomingtrxeum, uint256 _aTokenPrice)\n        private\n        pure\n        returns(uint256 tokensReceived, uint256 reverseAccess) {\n        require(_incomingtrxeum >= _aTokenPrice, \"input trx > a token price\");\n\n        tokensReceived = _incomingtrxeum.div(_aTokenPrice);\n\n        require(tokensReceived > 0, \"you can not buy 0 tokens\");\n\n        reverseAccess = _incomingtrxeum.sub(tokensReceived.mul(_aTokenPrice));\n    }\n\n\n    // ------------------------------------------------------------------------\n    // Inverse function trxeumToTokens (Token conversion to trx).\n    // ------------------------------------------------------------------------\n    function tokensTotrxeum(uint256 _tokens, uint256 _aTokenPrice)\n        private\n        pure\n        returns(uint256 trxReceived) {\n        require(_tokens > 0, \"0 tokens cannot be counted\");\n\n        trxReceived = _aTokenPrice.mul(_tokens);\n    }\n\n}\n",
  "sourcePath": "/home/user/tron/TRON-MARKET-TOKEN/contracts/URA.sol",
  "compiler": {
    "name": "solc",
    "version": "0.4.25+commit.69a1e720.Emscripten.clang"
  },
  "schemaVersion": "2.0.1",
  "updatedAt": "2019-01-15T14:11:38.144Z"
}